{
  "contractName": "Subscription",
  "abi": [
    {
      "constant": false,
      "inputs": [
        {
          "name": "userAddr",
          "type": "address"
        },
        {
          "name": "companyAddr",
          "type": "address"
        }
      ],
      "name": "setSubs",
      "outputs": [],
      "payable": false,
      "stateMutability": "nonpayable",
      "type": "function"
    },
    {
      "constant": true,
      "inputs": [
        {
          "name": "userAddr",
          "type": "address"
        }
      ],
      "name": "getClientList",
      "outputs": [
        {
          "name": "",
          "type": "address[]"
        }
      ],
      "payable": false,
      "stateMutability": "view",
      "type": "function"
    },
    {
      "constant": false,
      "inputs": [
        {
          "name": "userAddr",
          "type": "address"
        },
        {
          "name": "companyAddr",
          "type": "address"
        }
      ],
      "name": "cancelSubs",
      "outputs": [],
      "payable": false,
      "stateMutability": "nonpayable",
      "type": "function"
    },
    {
      "constant": true,
      "inputs": [
        {
          "name": "userAddr",
          "type": "address"
        },
        {
          "name": "companyAddr",
          "type": "address"
        }
      ],
      "name": "isClient",
      "outputs": [
        {
          "name": "",
          "type": "bool"
        }
      ],
      "payable": false,
      "stateMutability": "view",
      "type": "function"
    },
    {
      "constant": true,
      "inputs": [
        {
          "name": "userAddr",
          "type": "address"
        }
      ],
      "name": "getNumberOfClients",
      "outputs": [
        {
          "name": "",
          "type": "uint256"
        }
      ],
      "payable": false,
      "stateMutability": "view",
      "type": "function"
    }
  ],
  "bytecode": "0x6060604052341561000f57600080fd5b6109918061001e6000396000f30060606040526004361061006d576000357c0100000000000000000000000000000000000000000000000000000000900463ffffffff16806325063a12146100725780633b05161f146100ca5780635e565c6f146101585780637e61c768146101b0578063fde9d01314610220575b600080fd5b341561007d57600080fd5b6100c8600480803573ffffffffffffffffffffffffffffffffffffffff1690602001909190803573ffffffffffffffffffffffffffffffffffffffff1690602001909190505061026d565b005b34156100d557600080fd5b610101600480803573ffffffffffffffffffffffffffffffffffffffff169060200190919050506103b5565b6040518080602001828103825283818151815260200191508051906020019060200280838360005b83811015610144578082015181840152602081019050610129565b505050509050019250505060405180910390f35b341561016357600080fd5b6101ae600480803573ffffffffffffffffffffffffffffffffffffffff1690602001909190803573ffffffffffffffffffffffffffffffffffffffff169060200190919050506104ca565b005b34156101bb57600080fd5b610206600480803573ffffffffffffffffffffffffffffffffffffffff1690602001909190803573ffffffffffffffffffffffffffffffffffffffff169060200190919050506107b4565b604051808215151515815260200191505060405180910390f35b341561022b57600080fd5b610257600480803573ffffffffffffffffffffffffffffffffffffffff16906020019091905050610873565b6040518082815260200191505060405180910390f35b60003373ffffffffffffffffffffffffffffffffffffffff168373ffffffffffffffffffffffffffffffffffffffff161415156102a957600080fd5b6102b383836107b4565b15156103b0576000808473ffffffffffffffffffffffffffffffffffffffff1673ffffffffffffffffffffffffffffffffffffffff168152602001908152602001600020905060018160000180548060010182816103119190610900565b9160005260206000209001600085909190916101000a81548173ffffffffffffffffffffffffffffffffffffffff021916908373ffffffffffffffffffffffffffffffffffffffff160217905550505061036a83610873565b8160010160008473ffffffffffffffffffffffffffffffffffffffff1673ffffffffffffffffffffffffffffffffffffffff168152602001908152602001600020819055505b505050565b6103bd61092c565b60003373ffffffffffffffffffffffffffffffffffffffff168373ffffffffffffffffffffffffffffffffffffffff161415156103f957600080fd5b6000808473ffffffffffffffffffffffffffffffffffffffff1673ffffffffffffffffffffffffffffffffffffffff1681526020019081526020016000209050806000018054806020026020016040519081016040528092919081815260200182805480156104bd57602002820191906000526020600020905b8160009054906101000a900473ffffffffffffffffffffffffffffffffffffffff1673ffffffffffffffffffffffffffffffffffffffff1681526020019060010190808311610473575b5050505050915050919050565b60008060003373ffffffffffffffffffffffffffffffffffffffff168573ffffffffffffffffffffffffffffffffffffffff1614151561050957600080fd5b61051385856107b4565b156107ad576000808673ffffffffffffffffffffffffffffffffffffffff1673ffffffffffffffffffffffffffffffffffffffff1681526020019081526020016000209250826000018054905091508260010160008573ffffffffffffffffffffffffffffffffffffffff1673ffffffffffffffffffffffffffffffffffffffff1681526020019081526020016000205490505b818110156106ec576001836000018054905003811115156106df5782600001600182018154811015156105d657fe5b906000526020600020900160009054906101000a900473ffffffffffffffffffffffffffffffffffffffff16836000018281548110151561061357fe5b906000526020600020900160006101000a81548173ffffffffffffffffffffffffffffffffffffffff021916908373ffffffffffffffffffffffffffffffffffffffff16021790555080836001016000856000018481548110151561067457fe5b906000526020600020900160009054906101000a900473ffffffffffffffffffffffffffffffffffffffff1673ffffffffffffffffffffffffffffffffffffffff1673ffffffffffffffffffffffffffffffffffffffff168152602001908152602001600020819055505b80806001019150506105a7565b6000808673ffffffffffffffffffffffffffffffffffffffff1673ffffffffffffffffffffffffffffffffffffffff1681526020019081526020016000206000016000808773ffffffffffffffffffffffffffffffffffffffff1673ffffffffffffffffffffffffffffffffffffffff1681526020019081526020016000206000018054905081548110151561077e57fe5b906000526020600020900160006101000a81549073ffffffffffffffffffffffffffffffffffffffff02191690555b5050505050565b6000808273ffffffffffffffffffffffffffffffffffffffff161415801561085a575060008060008573ffffffffffffffffffffffffffffffffffffffff1673ffffffffffffffffffffffffffffffffffffffff16815260200190815260200160002060010160008473ffffffffffffffffffffffffffffffffffffffff1673ffffffffffffffffffffffffffffffffffffffff16815260200190815260200160002054115b15610868576001905061086d565b600090505b92915050565b6000803373ffffffffffffffffffffffffffffffffffffffff168373ffffffffffffffffffffffffffffffffffffffff161415156108b057600080fd5b6000808473ffffffffffffffffffffffffffffffffffffffff1673ffffffffffffffffffffffffffffffffffffffff16815260200190815260200160002090508060000180549050915050919050565b815481835581811511610927578183600052602060002091820191016109269190610940565b5b505050565b602060405190810160405280600081525090565b61096291905b8082111561095e576000816000905550600101610946565b5090565b905600a165627a7a723058205528ce28595a7f48aeac1015302d468bd8a5403acda2dcd3e15b70f0da9c23570029",
  "source": "pragma solidity ^0.4.19;\n\n\ncontract Subscription {\n\n    //We've defined a custom structure: Clients.\n    struct Clients{\n        //Which contains an array of Ethereum addresses: clients.\n        address[] clients;\n        mapping (address => uint) index;\n    }\n\n    //Then a mapping is created to engage an address to an array of addresses:\n    // address-of-user -> [address-of-company1, address-of-company2, ...]\n    mapping (address => Clients) subscriptions;\n\n    //Adds an address (client) to the end of the array mapped to another address (user)\n    function setSubs(address userAddr, address companyAddr) public{\n        require(userAddr == msg.sender);\n        if(!isClient(userAddr, companyAddr)){\n            var c = subscriptions[userAddr];\n            c.clients.push(companyAddr) -1;\n            c.index[companyAddr] = getNumberOfClients(userAddr);\n        }\n    }\n\n    //Remove an association between two addresses: user and company\n    function cancelSubs(address userAddr, address companyAddr) public{\n        require(userAddr == msg.sender);\n        if(isClient(userAddr, companyAddr)){\n            var c = subscriptions[userAddr];\n            var iter = c.clients.length;\n            for (uint i = c.index[companyAddr]; i < iter; i++){\n                if(i <= c.clients.length -1){\n                    c.clients[i] = c.clients[i + 1];\n                    c.index[c.clients[i]] = i;\n                }\n            }\n            delete subscriptions[userAddr].clients[subscriptions[userAddr].clients.length];\n        }\n    }\n\n    //Remove all the associations with an address (user)\n    //TODO\n\n    //Returns the address in the specified index\n    function getClientList(address userAddr) view public returns (address[]) {\n        require(userAddr == msg.sender);\n        var c = subscriptions[userAddr];\n        return c.clients;\n    }\n\n    //Check if the relation already exists\n    function isClient(address userAddr, address companyAddr) public view returns (bool){\n        if (companyAddr != 0x0 && subscriptions[userAddr].index[companyAddr] > 0){\n            return true;\n        }else{\n            return false;\n        }\n    }\n\n    //Returns the number of addresses associated to another address\n    function getNumberOfClients(address userAddr) view public returns (uint){\n        require(userAddr == msg.sender);\n        var c = subscriptions[userAddr];\n        return c.clients.length;\n    }\n\n\n    //Hereby we find the URLs used to establish the communication through Apache Kafka\n    //string private kafka_consumer = \"http://ec2-13-59-190-223.us-east-2.compute.amazonaws.com:3000/\";\n    //string private kafka_client = \"http://ec2-18-217-106-184.us-east-2.compute.amazonaws.com:3000/\";\n\n    // Subscribing a company\n    /*\n    In Solidity the types of both the function parameters and output must be specified.\n    In this case we'll be taking in a companyId (integer) and returning an integer.\n\n    We are checking to make sure companyId is in range of our array.\n    Arrays in Solidity are indexed from 0, so the ID value will need to be between 0 and 15.\n    We use the require() statement to ensure the the ID is within range.\n\n    If the ID is in range, we then add the address that made the call to our clients array.\n    The address of the person or smart contract who called this function is denoted by msg.sender.\n    */\n  /**  function subscribe(uint companyId) public view returns (address user) {\n    require(companyId >= 0 && companyId <= 1);\n        clients[companyId] = msg.sender;\n        return msg.sender;\n    }\n*/\n    // Unsubscribing a company\n    /**\n    In Solidity the types of both the function parameters and output must be specified.\n    In this case we'll be taking in a companyId (integer) and returning an integer.\n\n    We are checking to make sure companyId is in range of our array.\n    Arrays in Solidity are indexed from 0, so the ID value will need to be between 0 and 15.\n    We use the require() statement to ensure the the ID is within range.\n\n    If the ID is in range, we then delete the address that made the call from our array of subscribers.\n    The address of the person or smart contract who called this function is denoted by msg.sender.\n    */\n  /**  function unsubscribe(uint companyId) public view returns (address user) {\n        require(companyId >= 0 && companyId <= 1);\n        require(clients[companyId] == msg.sender);\n        clients[companyId] = 0x0000000000000000000000000000000000000000;\n        return msg.sender;\n    }*/\n\n    // Retrieving the clients\n    /*\n    Since clients is already declared, we can simply return it.\n    Be sure to specify the return type (in this case, the type for clients) as address[2].\n    So the returned element is an address array\n    */\n    /**function getClients(address account) public view returns (address[2]) {\n        require(account == msg.sender);\n        return clients;\n    }*/\n\n    /**\n    //Retrieving the balance of the account\n    function getBalance(address account) public view returns (address) {\n        require(account == msg.sender);\n        return account;\n    }\n\n    function send(address receiver, uint amount){\n        if (balances[msg.sender] < amount) return;\n        balances[msg.sender] -= amount;\n        balances[receiver] += amount;\n    }\n\n\n\n    //Query the balance of the address in method\n    function queryBalance(address addr) constant returns (uint balance) {\n        require(addr == msg.sender);\n        return balances[addr];\n    }\n\n\n    //Retrieving the Kafka Consumer (URL)\n    function getKafkaConsumer() public view returns (string) {\n        return kafka_consumer;\n    }\n\n    //Retrieving the Kafka client (URL)\n    function getKafkaclient() public view returns (string) {\n        return kafka_consumer;\n    }\n    */\n}\n",
  "sourcePath": "/Users/javiescariz/github/trade_smart_contract/contracts/Subscription.sol",
  "compiler": {
    "name": "solc",
    "version": "0.4.19+commit.c4cbbb05.Emscripten.clang"
  },
  "schemaVersion": "1.0.1",
  "updatedAt": "2018-04-11T17:44:36.812Z"
}