{
  "contractName": "User",
  "abi": [
    {
      "constant": false,
      "inputs": [
        {
          "name": "k",
          "type": "uint256"
        },
        {
          "name": "v",
          "type": "uint256"
        }
      ],
      "name": "insert",
      "outputs": [
        {
          "name": "size",
          "type": "uint256"
        }
      ],
      "payable": false,
      "stateMutability": "nonpayable",
      "type": "function"
    },
    {
      "constant": false,
      "inputs": [],
      "name": "sum",
      "outputs": [
        {
          "name": "s",
          "type": "uint256"
        }
      ],
      "payable": false,
      "stateMutability": "nonpayable",
      "type": "function"
    }
  ],
  "bytecode": "0x6060604052341561000f57600080fd5b6104128061001e6000396000f30060606040526004361061004c576000357c0100000000000000000000000000000000000000000000000000000000900463ffffffff1680631d834a1b14610051578063853255cc14610091575b600080fd5b341561005c57600080fd5b61007b60048080359060200190919080359060200190919050506100ba565b6040518082815260200191505060405180910390f35b341561009c57600080fd5b6100a461016a565b6040518082815260200191505060405180910390f35b600073__IterableMapping_______________________637e523645600085856000604051602001526040518463ffffffff167c010000000000000000000000000000000000000000000000000000000002815260040180848152602001838152602001828152602001935050505060206040518083038186803b151561014057600080fd5b6102c65a03f4151561015157600080fd5b5050506040518051905050600060020154905092915050565b60008060008073__IterableMapping_______________________63a21ab716600080604051602001526040518263ffffffff167c01000000000000000000000000000000000000000000000000000000000281526004018082815260200191505060206040518083038186803b15156101e357600080fd5b6102c65a03f415156101f457600080fd5b5050506040518051905092505b73__IterableMapping_______________________63c8fccc696000856000604051602001526040518363ffffffff167c0100000000000000000000000000000000000000000000000000000000028152600401808381526020018281526020019250505060206040518083038186803b151561027d57600080fd5b6102c65a03f4151561028e57600080fd5b50505060405180519050156103e05773__IterableMapping_______________________6375a3e8e86000856000604051604001526040518363ffffffff167c01000000000000000000000000000000000000000000000000000000000281526004018083815260200182815260200192505050604080518083038186803b151561031857600080fd5b6102c65a03f4151561032957600080fd5b5050506040518051906020018051905091509150808401935073__IterableMapping_______________________6388d044376000856000604051602001526040518363ffffffff167c0100000000000000000000000000000000000000000000000000000000028152600401808381526020018281526020019250505060206040518083038186803b15156103be57600080fd5b6102c65a03f415156103cf57600080fd5b505050604051805190509250610201565b505050905600a165627a7a72305820719aba21614e247c2146255cfce6a8c13dc613bb60899a7465cede8483f497620029",
  "source": "pragma solidity ^0.4.0;\n\n/// @dev Models a uint -> uint mapping where it is possible to iterate over all keys.\nlibrary IterableMapping\n{\n    struct itmap\n    {\n    mapping(uint => IndexValue) data;\n    KeyFlag[] keys;\n    uint size;\n    }\n    struct IndexValue { uint keyIndex; uint value; }\n    struct KeyFlag { uint key; bool deleted; }\n    function insert(itmap storage self, uint key, uint value) returns (bool replaced)\n    {\n        uint keyIndex = self.data[key].keyIndex;\n        self.data[key].value = value;\n        if (keyIndex > 0)\n        return true;\n        else\n        {\n            keyIndex = self.keys.length++;\n            self.data[key].keyIndex = keyIndex + 1;\n            self.keys[keyIndex].key = key;\n            self.size++;\n            return false;\n        }\n    }\n    function remove(itmap storage self, uint key) returns (bool success)\n    {\n        uint keyIndex = self.data[key].keyIndex;\n        if (keyIndex == 0)\n        return false;\n        delete self.data[key];\n        self.keys[keyIndex - 1].deleted = true;\n        self.size --;\n    }\n    function contains(itmap storage self, uint key) returns (bool)\n    {\n        return self.data[key].keyIndex > 0;\n    }\n    function iterate_start(itmap storage self) returns (uint keyIndex)\n    {\n        return iterate_next(self, uint(-1));\n    }\n    function iterate_valid(itmap storage self, uint keyIndex) returns (bool)\n    {\n        return keyIndex < self.keys.length;\n    }\n    function iterate_next(itmap storage self, uint keyIndex) returns (uint r_keyIndex)\n    {\n        keyIndex++;\n        while (keyIndex < self.keys.length && self.keys[keyIndex].deleted)\n        keyIndex++;\n        return keyIndex;\n    }\n    function iterate_get(itmap storage self, uint keyIndex) returns (uint key, uint value)\n    {\n        key = self.keys[keyIndex].key;\n        value = self.data[key].value;\n    }\n}\n\n// How to use it:\ncontract User\n{\n    // Just a struct holding our data.\n    IterableMapping.itmap data;\n    // Insert something\n    function insert(uint k, uint v) returns (uint size){\n        // Actually calls itmap_impl.insert, auto-supplying the first parameter for us.\n        IterableMapping.insert(data, k, v);\n        // We can still access members of the struct - but we should take care not to mess with them.\n        return data.size;\n    }\n    // Computes the sum of all stored data.\n    function sum() returns (uint s){\n        for (var i = IterableMapping.iterate_start(data); IterableMapping.iterate_valid(data, i); i = IterableMapping.iterate_next(data, i))\n        {\n            var (key, value) = IterableMapping.iterate_get(data, i);\n            s += value;\n        }\n    }\n}\n",
  "sourcePath": "/Users/javiescariz/github/trade_smart_contract/contracts/IterableMapping.sol",
  "compiler": {
    "name": "solc",
    "version": "0.4.18+commit.9cf6e910.Emscripten.clang"
  },
  "schemaVersion": "1.0.1",
  "updatedAt": "2018-03-30T12:21:29.939Z"
}